{
  "contractName": "Voting",
  "abi": [
    {
      "anonymous": false,
      "inputs": [
        {
          "indexed": false,
          "name": "id",
          "type": "uint256"
        },
        {
          "indexed": false,
          "name": "name",
          "type": "string"
        },
        {
          "indexed": false,
          "name": "party",
          "type": "string"
        },
        {
          "indexed": false,
          "name": "experince",
          "type": "string"
        },
        {
          "indexed": false,
          "name": "age",
          "type": "uint256"
        },
        {
          "indexed": false,
          "name": "voteCount",
          "type": "uint256"
        }
      ],
      "name": "AddedCandidate",
      "type": "event",
      "signature": "0x989336e19fbdfa8f0627881b15cc01b68f76ced152977c9c3cd3316068068450"
    },
    {
      "anonymous": false,
      "inputs": [
        {
          "indexed": false,
          "name": "voteCount",
          "type": "uint256"
        },
        {
          "indexed": false,
          "name": "voter",
          "type": "address"
        },
        {
          "indexed": false,
          "name": "candidateId",
          "type": "uint256"
        }
      ],
      "name": "Voted",
      "type": "event",
      "signature": "0x1abe610cf2bf87e57dcc1181fcf5ac0934e843d8344ab9eed6e86c799f62585e"
    },
    {
      "anonymous": false,
      "inputs": [
        {
          "indexed": false,
          "name": "phase",
          "type": "string"
        },
        {
          "indexed": false,
          "name": "phaseId",
          "type": "uint256"
        }
      ],
      "name": "PhaseChanged",
      "type": "event",
      "signature": "0x12d5cf67c2afeaaa618eb879da1332bf4b880d8d34d4b986674973f0b743ff12"
    },
    {
      "constant": false,
      "inputs": [
        {
          "name": "ethAddress",
          "type": "address"
        }
      ],
      "name": "registerVoter",
      "outputs": [],
      "payable": false,
      "stateMutability": "nonpayable",
      "type": "function",
      "signature": "0x38db6dd3"
    },
    {
      "constant": false,
      "inputs": [
        {
          "name": "name",
          "type": "string"
        },
        {
          "name": "party",
          "type": "string"
        },
        {
          "name": "experince",
          "type": "string"
        },
        {
          "name": "age",
          "type": "uint256"
        },
        {
          "name": "voteCount",
          "type": "uint256"
        }
      ],
      "name": "addCandidate",
      "outputs": [],
      "payable": false,
      "stateMutability": "nonpayable",
      "type": "function",
      "signature": "0x6cea31b3"
    },
    {
      "constant": false,
      "inputs": [
        {
          "name": "pId",
          "type": "uint256"
        }
      ],
      "name": "changePhase",
      "outputs": [],
      "payable": false,
      "stateMutability": "nonpayable",
      "type": "function",
      "signature": "0x62557de3"
    },
    {
      "constant": true,
      "inputs": [],
      "name": "getPhaseId",
      "outputs": [
        {
          "name": "",
          "type": "uint256"
        }
      ],
      "payable": false,
      "stateMutability": "view",
      "type": "function",
      "signature": "0xd4e45c14"
    },
    {
      "constant": false,
      "inputs": [
        {
          "name": "cid",
          "type": "uint256"
        },
        {
          "name": "pid",
          "type": "uint256"
        }
      ],
      "name": "castVote",
      "outputs": [],
      "payable": false,
      "stateMutability": "nonpayable",
      "type": "function",
      "signature": "0x2c0a3f89"
    }
  ],
  "bytecode": "0x60806040526001600055600060015534801561001a57600080fd5b50610a018061002a6000396000f3fe60806040526004361061006d576000357c0100000000000000000000000000000000000000000000000000000000900463ffffffff1680632c0a3f891461007257806338db6dd3146100b757806362557de3146101085780636cea31b314610143578063d4e45c141461034d575b600080fd5b34801561007e57600080fd5b506100b56004803603604081101561009557600080fd5b810190808035906020019092919080359060200190929190505050610378565b005b3480156100c357600080fd5b50610106600480360360208110156100da57600080fd5b81019080803573ffffffffffffffffffffffffffffffffffffffff169060200190929190505050610439565b005b34801561011457600080fd5b506101416004803603602081101561012b57600080fd5b8101908080359060200190929190505050610518565b005b34801561014f57600080fd5b5061034b600480360360a081101561016657600080fd5b810190808035906020019064010000000081111561018357600080fd5b82018360208201111561019557600080fd5b803590602001918460018302840111640100000000831117156101b757600080fd5b91908080601f016020809104026020016040519081016040528093929190818152602001838380828437600081840152601f19601f8201169050808301925050505050505091929192908035906020019064010000000081111561021a57600080fd5b82018360208201111561022c57600080fd5b8035906020019184600183028401116401000000008311171561024e57600080fd5b91908080601f016020809104026020016040519081016040528093929190818152602001838380828437600081840152601f19601f820116905080830192505050505050509192919290803590602001906401000000008111156102b157600080fd5b8201836020820111156102c357600080fd5b803590602001918460018302840111640100000000831117156102e557600080fd5b91908080601f016020809104026020016040519081016040528093929190818152602001838380828437600081840152601f19601f82011690508083019250505050505050919291929080359060200190929190803590602001909291905050506106a4565b005b34801561035957600080fd5b50610362610926565b6040518082815260200191505060405180910390f35b60018114151561038757600080fd5b600160026000848152602001908152602001600020600501600082825401925050819055507f1abe610cf2bf87e57dcc1181fcf5ac0934e843d8344ab9eed6e86c799f62585e60026000848152602001908152602001600020600501543384604051808481526020018373ffffffffffffffffffffffffffffffffffffffff1673ffffffffffffffffffffffffffffffffffffffff168152602001828152602001935050505060405180910390a15050565b80600360008373ffffffffffffffffffffffffffffffffffffffff1673ffffffffffffffffffffffffffffffffffffffff16815260200190815260200160002060000160006101000a81548173ffffffffffffffffffffffffffffffffffffffff021916908373ffffffffffffffffffffffffffffffffffffffff1602179055506001600360008373ffffffffffffffffffffffffffffffffffffffff1673ffffffffffffffffffffffffffffffffffffffff16815260200190815260200160002060000160146101000a81548160ff02191690831515021790555050565b600181141561059f57806001819055507f12d5cf67c2afeaaa618eb879da1332bf4b880d8d34d4b986674973f0b743ff1260015460405180806020018381526020018281038252600c8152602001807f566f74696e6720506861736500000000000000000000000000000000000000008152506020019250505060405180910390a16106a1565b600281141561062657806001819055507f12d5cf67c2afeaaa618eb879da1332bf4b880d8d34d4b986674973f0b743ff1260015460405180806020018381526020018281038252600c8152602001807f526573756c7420506861736500000000000000000000000000000000000000008152506020019250505060405180910390a16106a0565b806001819055507f12d5cf67c2afeaaa618eb879da1332bf4b880d8d34d4b986674973f0b743ff126001546040518080602001838152602001828103825260138152602001807f52656769737465726174696f6e205068617365000000000000000000000000008152506020019250505060405180910390a15b5b50565b60005460026000805481526020019081526020016000206000018190555084600260008054815260200190815260200160002060010190805190602001906106ed929190610930565b508360026000805481526020019081526020016000206002019080519060200190610719929190610930565b508260026000805481526020019081526020016000206003019080519060200190610745929190610930565b508160026000805481526020019081526020016000206004018190555060006002600080548152602001908152602001600020600501819055507f989336e19fbdfa8f0627881b15cc01b68f76ced152977c9c3cd3316068068450600054868686868660405180878152602001806020018060200180602001868152602001858152602001848103845289818151815260200191508051906020019080838360005b838110156108025780820151818401526020810190506107e7565b50505050905090810190601f16801561082f5780820380516001836020036101000a031916815260200191505b50848103835288818151815260200191508051906020019080838360005b8381101561086857808201518184015260208101905061084d565b50505050905090810190601f1680156108955780820380516001836020036101000a031916815260200191505b50848103825287818151815260200191508051906020019080838360005b838110156108ce5780820151818401526020810190506108b3565b50505050905090810190601f1680156108fb5780820380516001836020036101000a031916815260200191505b50995050505050505050505060405180910390a1600160008082825401925050819055505050505050565b6000600154905090565b828054600181600116156101000203166002900490600052602060002090601f016020900481019282601f1061097157805160ff191683800117855561099f565b8280016001018555821561099f579182015b8281111561099e578251825591602001919060010190610983565b5b5090506109ac91906109b0565b5090565b6109d291905b808211156109ce5760008160009055506001016109b6565b5090565b9056fea165627a7a7230582034ced38b389f7588e0489ac77e2e26d03dd0183883ed6f7555a32b13992455a40029",
  "source": "// SPDX-License-Identifier: MIT\npragma solidity >=0.4.17 <=0.8.6;\n\ncontract Voting {\n    \n    uint256 candidateId = 1;\n    uint phaseId=0;\n    \n    struct Voter {\n        address ethAddress;\n        bool registered;\n    }\n    \n    struct Candidate {\n        uint id;\n        string name;\n        string party;\n        string experince;\n        uint256 age;\n        uint256 voteCount;\n    }\n\n      event AddedCandidate(\n        uint id,\n        string name,\n        string party,\n        string experince,\n        uint256 age,\n        uint256 voteCount\n    );\n\n    event Voted(\n        uint voteCount,\n        address voter,\n        uint candidateId\n    );\n\n    event PhaseChanged(\n        string phase,\n        uint phaseId\n\n    );\n\n    mapping(uint256 => Candidate) CandidateMapping;\n\n    mapping(address => Voter) voterMapping;\n\n    function registerVoter(address ethAddress) public {\n        voterMapping[ethAddress].ethAddress = ethAddress;\n        voterMapping[ethAddress].registered = true;\n    }\n\n    function addCandidate(\n        string memory name,\n        string memory party,\n        string memory experince,\n        uint256 age,\n        uint256 voteCount\n    ) public {\n        CandidateMapping[candidateId].id=candidateId;\n        CandidateMapping[candidateId].name = name;\n        CandidateMapping[candidateId].party = party;\n        CandidateMapping[candidateId].experince = experince;\n        CandidateMapping[candidateId].age = age;\n        CandidateMapping[candidateId].voteCount = 0;\n\n        emit AddedCandidate(candidateId,name, party, experince, age, voteCount);\n\n        candidateId+=1;\n\n    }\n    \n    function changePhase(uint pId) public {\n        if(pId==1){\n        phaseId=pId;\n        emit PhaseChanged(\"Voting Phase\",phaseId);\n        }\n        else if(pId==2){\n            phaseId=pId;\n            emit PhaseChanged(\"Result Phase\",phaseId);\n        }\n        else{\n            phaseId=pId;\n            emit PhaseChanged(\"Registeration Phase\",phaseId);\n        } \n    }\n\n    function getPhaseId() public view returns (uint){\n        return phaseId;\n    }\n    \n    function castVote(uint cid, uint pid) public{\n        // require(voterMapping[msg.sender].registered);\n        // require(cid<=candidateId && cid>=0);\n        require(pid==1);\n        CandidateMapping[cid].voteCount+=1;\n\n        emit Voted(CandidateMapping[cid].voteCount,msg.sender,cid);\n        \n        // voterMapping[msg.sender].registered=false;\n    }\n     \n}\n",
  "sourcePath": "C:/Users/HP/Desktop/VoteBlock/contracts/Voting.sol",
  "compiler": {
    "name": "solc",
    "version": "0.5.0+commit.1d4f565a.Emscripten.clang"
  },
  "schemaVersion": "3.0.1",
  "updatedAt": "2021-07-06T10:11:53.090Z",
  "devdoc": {
    "methods": {}
  },
  "userdoc": {
    "methods": {}
  }
}