{
  "contractName": "Voting",
  "abi": [
    {
      "constant": false,
      "inputs": [
        {
          "name": "ethAddress",
          "type": "address"
        }
      ],
      "name": "registerVoter",
      "outputs": [],
      "payable": false,
      "stateMutability": "nonpayable",
      "type": "function",
      "signature": "0x38db6dd3"
    }
  ],
  "bytecode": "0x60806040526000805534801561001457600080fd5b50610123806100246000396000f3fe608060405260043610603f576000357c0100000000000000000000000000000000000000000000000000000000900463ffffffff16806338db6dd3146044575b600080fd5b348015604f57600080fd5b50608f60048036036020811015606457600080fd5b81019080803573ffffffffffffffffffffffffffffffffffffffff1690602001909291905050506091565b005b80600160008054815260200190815260200160002060006101000a81548173ffffffffffffffffffffffffffffffffffffffff021916908373ffffffffffffffffffffffffffffffffffffffff160217905550600160008082825401925050819055505056fea165627a7a72305820f4610587da9645efe87f24673c546d491b602523cbd2f3041ae406fa6d8f75450029",
  "source": "// SPDX-License-Identifier: MIT\npragma solidity >=0.4.17 <=0.8.6;\n\ncontract Voting {\n\n  uint addressId=0;\n\n  mapping(uint => address) ethAddressMapping;\n\n  function registerVoter(address ethAddress) public {\n      ethAddressMapping[addressId] = ethAddress;\n      addressId+=1;\n  } \n}\n",
  "sourcePath": "C:/Users/HP/Desktop/VoteBlock/contracts/Voting.sol",
  "compiler": {
    "name": "solc",
    "version": "0.5.0+commit.1d4f565a.Emscripten.clang"
  },
  "schemaVersion": "3.0.1",
  "updatedAt": "2021-06-30T17:10:40.579Z",
  "devdoc": {
    "methods": {}
  },
  "userdoc": {
    "methods": {}
  }
}