{
  "contractName": "Voting",
  "abi": [
    {
      "anonymous": false,
      "inputs": [
        {
          "indexed": false,
          "name": "id",
          "type": "uint256"
        },
        {
          "indexed": false,
          "name": "name",
          "type": "string"
        },
        {
          "indexed": false,
          "name": "party",
          "type": "string"
        },
        {
          "indexed": false,
          "name": "experince",
          "type": "string"
        },
        {
          "indexed": false,
          "name": "age",
          "type": "uint256"
        },
        {
          "indexed": false,
          "name": "voteCount",
          "type": "uint256"
        }
      ],
      "name": "AddedCandidate",
      "type": "event",
      "signature": "0x989336e19fbdfa8f0627881b15cc01b68f76ced152977c9c3cd3316068068450"
    },
    {
      "anonymous": false,
      "inputs": [
        {
          "indexed": false,
          "name": "voteCount",
          "type": "uint256"
        },
        {
          "indexed": false,
          "name": "voter",
          "type": "address"
        },
        {
          "indexed": false,
          "name": "candidateId",
          "type": "uint256"
        }
      ],
      "name": "Voted",
      "type": "event",
      "signature": "0x1abe610cf2bf87e57dcc1181fcf5ac0934e843d8344ab9eed6e86c799f62585e"
    },
    {
      "constant": false,
      "inputs": [
        {
          "name": "ethAddress",
          "type": "address"
        }
      ],
      "name": "registerVoter",
      "outputs": [],
      "payable": false,
      "stateMutability": "nonpayable",
      "type": "function",
      "signature": "0x38db6dd3"
    },
    {
      "constant": false,
      "inputs": [
        {
          "name": "name",
          "type": "string"
        },
        {
          "name": "party",
          "type": "string"
        },
        {
          "name": "experince",
          "type": "string"
        },
        {
          "name": "age",
          "type": "uint256"
        },
        {
          "name": "voteCount",
          "type": "uint256"
        }
      ],
      "name": "addCandidate",
      "outputs": [],
      "payable": false,
      "stateMutability": "nonpayable",
      "type": "function",
      "signature": "0x6cea31b3"
    },
    {
      "constant": false,
      "inputs": [
        {
          "name": "pId",
          "type": "uint256"
        }
      ],
      "name": "changePhase",
      "outputs": [],
      "payable": false,
      "stateMutability": "nonpayable",
      "type": "function",
      "signature": "0x62557de3"
    },
    {
      "constant": false,
      "inputs": [
        {
          "name": "cid",
          "type": "uint256"
        }
      ],
      "name": "castVote",
      "outputs": [],
      "payable": false,
      "stateMutability": "nonpayable",
      "type": "function",
      "signature": "0x3eb76b9c"
    }
  ],
  "bytecode": "0x60806040526001600055600060015534801561001a57600080fd5b506108258061002a6000396000f3fe608060405260043610610062576000357c0100000000000000000000000000000000000000000000000000000000900463ffffffff16806338db6dd3146100675780633eb76b9c146100b857806362557de3146100f35780636cea31b31461012e575b600080fd5b34801561007357600080fd5b506100b66004803603602081101561008a57600080fd5b81019080803573ffffffffffffffffffffffffffffffffffffffff169060200190929190505050610338565b005b3480156100c457600080fd5b506100f1600480360360208110156100db57600080fd5b8101908080359060200190929190505050610417565b005b3480156100ff57600080fd5b5061012c6004803603602081101561011657600080fd5b81019080803590602001909291905050506104c8565b005b34801561013a57600080fd5b50610336600480360360a081101561015157600080fd5b810190808035906020019064010000000081111561016e57600080fd5b82018360208201111561018057600080fd5b803590602001918460018302840111640100000000831117156101a257600080fd5b91908080601f016020809104026020016040519081016040528093929190818152602001838380828437600081840152601f19601f8201169050808301925050505050505091929192908035906020019064010000000081111561020557600080fd5b82018360208201111561021757600080fd5b8035906020019184600183028401116401000000008311171561023957600080fd5b91908080601f016020809104026020016040519081016040528093929190818152602001838380828437600081840152601f19601f8201169050808301925050505050505091929192908035906020019064010000000081111561029c57600080fd5b8201836020820111156102ae57600080fd5b803590602001918460018302840111640100000000831117156102d057600080fd5b91908080601f016020809104026020016040519081016040528093929190818152602001838380828437600081840152601f19601f82011690508083019250505050505050919291929080359060200190929190803590602001909291905050506104d2565b005b80600360008373ffffffffffffffffffffffffffffffffffffffff1673ffffffffffffffffffffffffffffffffffffffff16815260200190815260200160002060000160006101000a81548173ffffffffffffffffffffffffffffffffffffffff021916908373ffffffffffffffffffffffffffffffffffffffff1602179055506001600360008373ffffffffffffffffffffffffffffffffffffffff1673ffffffffffffffffffffffffffffffffffffffff16815260200190815260200160002060000160146101000a81548160ff02191690831515021790555050565b600160026000838152602001908152602001600020600501600082825401925050819055507f1abe610cf2bf87e57dcc1181fcf5ac0934e843d8344ab9eed6e86c799f62585e60026000838152602001908152602001600020600501543383604051808481526020018373ffffffffffffffffffffffffffffffffffffffff1673ffffffffffffffffffffffffffffffffffffffff168152602001828152602001935050505060405180910390a150565b8060018190555050565b600054600260008054815260200190815260200160002060000181905550846002600080548152602001908152602001600020600101908051906020019061051b929190610754565b508360026000805481526020019081526020016000206002019080519060200190610547929190610754565b508260026000805481526020019081526020016000206003019080519060200190610573929190610754565b508160026000805481526020019081526020016000206004018190555060006002600080548152602001908152602001600020600501819055507f989336e19fbdfa8f0627881b15cc01b68f76ced152977c9c3cd3316068068450600054868686868660405180878152602001806020018060200180602001868152602001858152602001848103845289818151815260200191508051906020019080838360005b83811015610630578082015181840152602081019050610615565b50505050905090810190601f16801561065d5780820380516001836020036101000a031916815260200191505b50848103835288818151815260200191508051906020019080838360005b8381101561069657808201518184015260208101905061067b565b50505050905090810190601f1680156106c35780820380516001836020036101000a031916815260200191505b50848103825287818151815260200191508051906020019080838360005b838110156106fc5780820151818401526020810190506106e1565b50505050905090810190601f1680156107295780820380516001836020036101000a031916815260200191505b50995050505050505050505060405180910390a1600160008082825401925050819055505050505050565b828054600181600116156101000203166002900490600052602060002090601f016020900481019282601f1061079557805160ff19168380011785556107c3565b828001600101855582156107c3579182015b828111156107c25782518255916020019190600101906107a7565b5b5090506107d091906107d4565b5090565b6107f691905b808211156107f25760008160009055506001016107da565b5090565b9056fea165627a7a723058208a79ea76b78cbe5269be77705f7337ccdbc1c4eb79e7fdafa4c7b23a5c892e9a0029",
  "source": "// SPDX-License-Identifier: MIT\npragma solidity >=0.4.17 <=0.8.6;\n\ncontract Voting {\n    \n    uint256 candidateId = 1;\n    uint phaseId=0;\n    \n    struct Voter {\n        address ethAddress;\n        bool registered;\n    }\n    \n    struct Candidate {\n        uint id;\n        string name;\n        string party;\n        string experince;\n        uint256 age;\n        uint256 voteCount;\n    }\n\n      event AddedCandidate(\n        uint id,\n        string name,\n        string party,\n        string experince,\n        uint256 age,\n        uint256 voteCount\n    );\n\n    event Voted(\n        uint voteCount,\n        address voter,\n        uint candidateId\n    );\n\n    mapping(uint256 => Candidate) CandidateMapping;\n\n    mapping(address => Voter) voterMapping;\n\n    function registerVoter(address ethAddress) public {\n        voterMapping[ethAddress].ethAddress = ethAddress;\n        voterMapping[ethAddress].registered = true;\n    }\n\n    function addCandidate(\n        string memory name,\n        string memory party,\n        string memory experince,\n        uint256 age,\n        uint256 voteCount\n    ) public {\n        CandidateMapping[candidateId].id=candidateId;\n        CandidateMapping[candidateId].name = name;\n        CandidateMapping[candidateId].party = party;\n        CandidateMapping[candidateId].experince = experince;\n        CandidateMapping[candidateId].age = age;\n        CandidateMapping[candidateId].voteCount = 0;\n\n        emit AddedCandidate(candidateId,name, party, experince, age, voteCount);\n\n        candidateId+=1;\n\n    }\n    \n    function changePhase(uint pId) public {\n        phaseId=pId;\n    }\n    \n    function castVote(uint cid) public{\n        // require(voterMapping[msg.sender].registered);\n        // require(cid<=candidateId && cid>=0);\n        // require(phaseId==1);\n        CandidateMapping[cid].voteCount+=1;\n\n        emit Voted(CandidateMapping[cid].voteCount,msg.sender,cid);\n        \n        // voterMapping[msg.sender].registered=false;\n    }\n     \n}\n",
  "sourcePath": "C:/Users/HP/Desktop/VoteBlock/contracts/Voting.sol",
  "compiler": {
    "name": "solc",
    "version": "0.5.0+commit.1d4f565a.Emscripten.clang"
  },
  "schemaVersion": "3.0.1",
  "updatedAt": "2021-07-05T17:38:26.294Z",
  "devdoc": {
    "methods": {}
  },
  "userdoc": {
    "methods": {}
  }
}