{
  "contractName": "Voting",
  "abi": [
    {
      "anonymous": false,
      "inputs": [
        {
          "indexed": false,
          "name": "name",
          "type": "string"
        },
        {
          "indexed": false,
          "name": "party",
          "type": "string"
        },
        {
          "indexed": false,
          "name": "experince",
          "type": "string"
        },
        {
          "indexed": false,
          "name": "age",
          "type": "uint256"
        },
        {
          "indexed": false,
          "name": "voteCount",
          "type": "uint256"
        }
      ],
      "name": "AddedCandidate",
      "type": "event",
      "signature": "0xe9d6e80662c078f87dff8c7727a103c028cf6a172c91359fa5d342f9095efc3c"
    },
    {
      "constant": false,
      "inputs": [
        {
          "name": "ethAddress",
          "type": "address"
        }
      ],
      "name": "registerVoter",
      "outputs": [],
      "payable": false,
      "stateMutability": "nonpayable",
      "type": "function",
      "signature": "0x38db6dd3"
    },
    {
      "constant": false,
      "inputs": [
        {
          "name": "name",
          "type": "string"
        },
        {
          "name": "party",
          "type": "string"
        },
        {
          "name": "experince",
          "type": "string"
        },
        {
          "name": "age",
          "type": "uint256"
        },
        {
          "name": "voteCount",
          "type": "uint256"
        }
      ],
      "name": "addCandidate",
      "outputs": [],
      "payable": false,
      "stateMutability": "nonpayable",
      "type": "function",
      "signature": "0x6cea31b3"
    }
  ],
  "bytecode": "0x608060405260008055600060015534801561001957600080fd5b50610632806100296000396000f3fe60806040526004361061004c576000357c0100000000000000000000000000000000000000000000000000000000900463ffffffff16806338db6dd3146100515780636cea31b3146100a2575b600080fd5b34801561005d57600080fd5b506100a06004803603602081101561007457600080fd5b81019080803573ffffffffffffffffffffffffffffffffffffffff1690602001909291905050506102ac565b005b3480156100ae57600080fd5b506102aa600480360360a08110156100c557600080fd5b81019080803590602001906401000000008111156100e257600080fd5b8201836020820111156100f457600080fd5b8035906020019184600183028401116401000000008311171561011657600080fd5b91908080601f016020809104026020016040519081016040528093929190818152602001838380828437600081840152601f19601f8201169050808301925050505050505091929192908035906020019064010000000081111561017957600080fd5b82018360208201111561018b57600080fd5b803590602001918460018302840111640100000000831117156101ad57600080fd5b91908080601f016020809104026020016040519081016040528093929190818152602001838380828437600081840152601f19601f8201169050808301925050505050505091929192908035906020019064010000000081111561021057600080fd5b82018360208201111561022257600080fd5b8035906020019184600183028401116401000000008311171561024457600080fd5b91908080601f016020809104026020016040519081016040528093929190818152602001838380828437600081840152601f19601f8201169050808301925050505050505091929192908035906020019092919080359060200190929190505050610312565b005b80600360008054815260200190815260200160002060006101000a81548173ffffffffffffffffffffffffffffffffffffffff021916908373ffffffffffffffffffffffffffffffffffffffff1602179055506001600080828254019250508190555050565b84600260006001548152602001908152602001600020600001908051906020019061033e929190610561565b5083600260006001548152602001908152602001600020600101908051906020019061036b929190610561565b50826002600060015481526020019081526020016000206002019080519060200190610398929190610561565b5081600260006001548152602001908152602001600020600301819055506000600260006001548152602001908152602001600020600401819055507fe9d6e80662c078f87dff8c7727a103c028cf6a172c91359fa5d342f9095efc3c858585858560405180806020018060200180602001868152602001858152602001848103845289818151815260200191508051906020019080838360005b8381101561044e578082015181840152602081019050610433565b50505050905090810190601f16801561047b5780820380516001836020036101000a031916815260200191505b50848103835288818151815260200191508051906020019080838360005b838110156104b4578082015181840152602081019050610499565b50505050905090810190601f1680156104e15780820380516001836020036101000a031916815260200191505b50848103825287818151815260200191508051906020019080838360005b8381101561051a5780820151818401526020810190506104ff565b50505050905090810190601f1680156105475780820380516001836020036101000a031916815260200191505b509850505050505050505060405180910390a15050505050565b828054600181600116156101000203166002900490600052602060002090601f016020900481019282601f106105a257805160ff19168380011785556105d0565b828001600101855582156105d0579182015b828111156105cf5782518255916020019190600101906105b4565b5b5090506105dd91906105e1565b5090565b61060391905b808211156105ff5760008160009055506001016105e7565b5090565b9056fea165627a7a723058204b79d44cf58673eaca01e9d603aaf0a07b7974896ee6a946cdc886f0e27f047d0029",
  "source": "// SPDX-License-Identifier: MIT\npragma solidity >=0.4.17 <=0.8.6;\n\ncontract Voting {\n    uint256 addressId = 0;\n    uint256 candidateId = 0;\n\n    struct Candidate {\n        string name;\n        string party;\n        string experince;\n        uint256 age;\n        uint256 voteCount;\n    }\n\n    event AddedCandidate(\n        string name,\n        string party,\n        string experince,\n        uint256 age,\n        uint256 voteCount\n    );\n\n    mapping(uint256 => Candidate) CandidateMapping;\n\n    mapping(uint256 => address) ethAddressMapping;\n\n    function registerVoter(address ethAddress) public {\n        ethAddressMapping[addressId] = ethAddress;\n        addressId += 1;\n    }\n\n    function addCandidate(\n        string memory name,\n        string memory party,\n        string memory experince,\n        uint256 age,\n        uint256 voteCount\n    ) public {\n        CandidateMapping[candidateId].name = name;\n        CandidateMapping[candidateId].party = party;\n        CandidateMapping[candidateId].experince = experince;\n        CandidateMapping[candidateId].age = age;\n        CandidateMapping[candidateId].voteCount = 0;\n\n        emit AddedCandidate(name, party, experince, age, voteCount);\n    }\n}\n",
  "sourcePath": "C:/Users/HP/Desktop/VoteBlock/contracts/Voting.sol",
  "compiler": {
    "name": "solc",
    "version": "0.5.0+commit.1d4f565a.Emscripten.clang"
  },
  "schemaVersion": "3.0.1",
  "updatedAt": "2021-07-01T17:30:25.036Z",
  "devdoc": {
    "methods": {}
  },
  "userdoc": {
    "methods": {}
  }
}